:100000000C945E000C9486000C9486000C94860080
:100010000C9486000C9486000C9486000C94860048
:100020000C9486000C9486000C9489060C9433077B
:100030000C9442060C9486000C9486000C94860066
:100040000C94A0050C9486000C9410060C94EA0500
:100050000C9486000C9486000C9486000C94860008
:100060000C9486000C9486000000000024002700F9
:100070002A0000000000250028002B0004040404CE
:100080000404040402020202020203030303030342
:10009000010204081020408001020408102001021F
:1000A00004081020000000080002010000030407FB
:1000B0000000000000000000CC07DF0911241FBE73
:1000C000CFEFD8E0DEBFCDBF22E0A2E6B1E001C0B5
:1000D0001D92A53EB207E1F711E0A0E0B1E0E4E136
:1000E000F9E102C005900D92A236B107D9F710E0F0
:1000F000CDE5D0E004C02197FE010E947B0ACC35FB
:10010000D107C9F70E9495080C947D0C0C9400004F
:1001100090E0FC01EC55FF4F2491FC01E057FF4FAC
:100120003491FC01E458FF4FE491EE2309F43CC004
:10013000222339F1233091F038F42130A9F0223014
:1001400001F584B58F7D12C0273091F02830A1F0E1
:100150002430B9F4809180008F7D03C080918000AD
:100160008F77809380000DC084B58F7784BD09C0E0
:100170008091B0008F7703C08091B0008F7D809315
:10018000B000F0E0EE0FFF1FEE58FF4FA591B491C5
:100190009FB7F894611104C08C913095382302C048
:1001A000EC913E2B3C939FBF0895AF92BF92CF92AC
:1001B000DF92EF92FF920F931F93CF93DF938C0107
:1001C0005C018EE0A80EB11CC42ED12CC0E0D0E0A2
:1001D000E62EF12CCC15DD0579F0B7010C2E02C00E
:1001E000759567950A94E2F76170F50181915F0159
:1001F0000E9488002196EECF61E0F80185850E947B
:10020000880060E0F8018585DF91CF911F910F9103
:10021000FF90EF90DF90CF90BF90AF900C9488004C
:10022000CF93DF9390E0FC01E057FF4F2491FC0156
:10023000E458FF4F8491882361F190E0880F991F63
:10024000FC01E859FF4FC591D491FC01EE58FF4FD6
:10025000A591B491611109C09FB7F8948881209548
:1002600082238883EC912E230BC0623061F49FB708
:10027000F8948881322F309583238883EC912E2B3C
:100280002C939FBF06C08FB7F894E8812E2B28834C
:100290008FBFDF91CF9108953FB7F8948091070207
:1002A00090910802A0910902B0910A0226B5A89B7C
:1002B00005C02F3F19F00196A11DB11D3FBFBA2FF8
:1002C000A92F982F8827820F911DA11DB11DBC0158
:1002D000CD0142E0660F771F881F991F4A95D1F71D
:1002E00008958F929F92AF92BF92CF92DF92EF923A
:1002F000FF926B017C010E944C014B015C01C11417
:10030000D104E104F104F1F00E944C01DC01CB01C5
:1003100088199909AA09BB09883E9340A105B1052E
:1003200070F321E0C21AD108E108F10888EE880EC6
:1003300083E0981EA11CB11CC114D104E104F10496
:1003400019F7DDCFFF90EF90DF90CF90BF90AF9087
:100350009F908F9008950895CF92DF92EF92FF9231
:100360000F931F93CF93DF936C017A018B01C0E051
:10037000D0E0CE15DF0581F0D8016D918D01D60159
:10038000ED91FC910190F081E02DC6010995892B3A
:1003900011F02196EECF7E01C701DF91CF911F9121
:1003A0000F91FF90EF90DF90CF900895FC01448172
:1003B0005581608171818AEC92E00C94AC01FC0162
:1003C000538D448D252F30E0842F90E0821B930BBA
:1003D000541710F0CF96089501970895FC01918D60
:1003E000828D981761F0828DDF01A80FB11D5D9697
:1003F0008C91928D9F5F9F73928F90E008958FEF05
:100400009FEF0895FC01918D828D981731F0828DB8
:10041000E80FF11D858D90E008958FEF9FEF08950F
:10042000FC01918D228D892F90E0805C9F4F821B73
:1004300091098F73992708958FE092E00E9410022E
:1004400021E0892B09F420E0822F0895FC01848D9E
:10045000DF01A80FB11DA35ABF4F2C91848D90E0EE
:1004600001968F739927848FA689B7892C93A089C9
:10047000B1898C91837080648C93938D848D981353
:1004800006C00288F389E02D80818F7D80830895E6
:10049000EF92FF920F931F93CF93DF93EC0181E0D4
:1004A000888F9B8D8C8D981305C0E889F989808190
:1004B00085FD26C0F62E0B8D10E00F5F1F4F0F73CA
:1004C0001127E02E8C8DE8120CC00FB607FCFACF76
:1004D000E889F989808185FFF5CFCE010E94260247
:1004E000F1CF8B8DFE01E80FF11DE35AFF4FF08233
:1004F0009FB7F8940B8FEA89FB89808180620AC0DC
:100500009FB7F894EE89FF896083E889F989808133
:100510008370806480839FBF81E090E0DF91CF9102
:100520001F910F91FF90EF900895CF93DF93EC010F
:10053000888D8823C9F0EA89FB89808185FD05C003
:10054000A889B9898C9186FD0FC00FB607FCF5CF3D
:10055000808185FFF2CFA889B9898C9185FFEDCF85
:10056000CE010E942602E7CFDF91CF91089580E06F
:1005700090E0892B29F00E941C0281110C9400004C
:100580000895FC0186898F3F79F0218532856623A5
:1005900019F0232B31F403C02130310511F461E04F
:1005A00001C060E00C9488000895EF92FF921F93C1
:1005B000CF93DF93EC01162F7A0161E0812F0E9427
:1005C00010011E8BFA86E986E881F9810484F5859D
:1005D000E02D60E0CE01DF91CF911F91FF90EF9071
:1005E00009940F931F93CF93DF93EC01162F042FE1
:1005F00061E0413009F060E08B850E9488008C85C5
:100600008F3F19F060E00E948800023081F08C81F9
:1006100084FF02C048E00CC0612F70E084E0759553
:1006200067958A95E1F744E0CE010E94D50044E049
:10063000612FCE01DF91CF911F910F910C94D500C6
:10064000DC01ED91FC910684F785E02D41E00995F0
:1006500081E090E00895DC01ED91FC910684F7853E
:10066000E02D40E00994CF93DF93CDB7DEB7289714
:100670000FB6F894DEBF0FBECDBF4091060150917A
:10068000070160910801709109014D835E836F83BA
:10069000788740910A0150910B0160910C01709193
:1006A0000D0149835A836B837C832091D102821789
:1006B00010F08FEF820F3091D20290E0FE01E80F30
:1006C000F91F303121F4243011F4618101C06581BA
:1006D00060688AEC92E028960FB6F894DEBF0FBEF1
:1006E000CDBFDF91CF910C942B030F931F93CF932A
:1006F000DF93EC01423018F08C8188608C834F834B
:100700006887222329F0413019F48C8184608C831E
:1007100064E670E080E090E00E9471016C8164FD0D
:1007200031C0E881F9810684F785E02D42E063E07D
:10073000CE0109958BE496E40197F1F7E881F98100
:100740000684F785E02D42E063E0CE01099503E5DC
:1007500012E0C8010197F1F7E881F9810684F78575
:10076000E02D42E063E0CE010995C8010197F1F761
:10077000E881F9810684F785E02D42E062E0CE0150
:10078000099517C06062CE010E942B038BE496E4AA
:100790000197F1F76C816062CE010E942B0303E5A3
:1007A00012E0C8010197F1F76C816062CE010E94EE
:1007B0002B03C8010197F1F76C816062CE010E94A2
:1007C0002B038BEE90E00197F1F784E08D836CE0D2
:1007D000CE010E942B0361E0CE010E942B038BE32C
:1007E0009FE10197F1F782E08E8366E0CE010E94DF
:1007F0002B03E881F9810484F585E02D6FEFCE01AC
:10080000DF91CF911F910F91099408950895509110
:1008100000024091FF01852F90E0242F30E0541713
:1008200010F4805B9F4F821B930B08958091000210
:10083000E091FF018E1751F0EF5FE03508F0E0E046
:10084000F0E0E455FE4F808190E008958FEF9FEF38
:100850000895809100029091FF01891769F09F5FD0
:10086000903508F090E0E92FF0E0E455FE4F8081EC
:100870009093FF0190E008958FEF9FEF08952FB7B9
:10088000F89480910B0290910C02A0910D02B0910E
:100890000E022FBF8093C6029093C702A093C80296
:1008A000B093C9028EEB92E00E94290497FF26C004
:1008B0002FB7F89480910B0290910C02A0910D0239
:1008C000B0910E022FBF4091C6025091C7026091B5
:1008D000C8027091C902841B950BA60BB70B4091FF
:1008E000C2025091C3026091C4027091C502841784
:1008F0009507A607B707B0F28FEF9FEF0895809195
:10090000FE018111FCCF08958091FD018F5F843439
:1009100008F080E09091FC019817E1F32FB7F8946C
:100920009091FE01992341F0E82FF0E0EE59FE4F3F
:1009300060838093FD011DC081E08093FE01609380
:10094000A7011092A60182E086BB80916F008260B1
:1009500080936F00809180008F7B806880938000FF
:1009600080918400909185004096909389008093B7
:1009700088002FBF81E090E0089580E090E0089526
:10098000009769F0FC0101900020E9F73197AF0171
:10099000481B590BBC018AEC92E00C94AC0180E03E
:1009A00090E008950F931F93CF93DF938C01EB0199
:1009B000FC0180819181009739F06881798161150E
:1009C0007105A1F40E94190B88819981F801918326
:1009D00080838A819B81938382838C819D8195838F
:1009E0008483198218821B821A820FC0F801428107
:1009F00053812C813D814217530720F30E94760CCE
:100A00008C819D81F801958384831D821C82DF91F6
:100A1000CF911F910F910895CF93DF93EC018881BF
:100A20009981009711F00E94190B198218821D827A
:100A30001C821B821A82DF91CF9108950E94680C5C
:100A40000F931F93CF93DF93EC01888199810097D7
:100A500029F02A813B812617370788F48B016F5FC5
:100A60007F4F0E94A20B009761F0998388831B83BC
:100A70000A832C813D81232B11F4FC01108281E03B
:100A800001C080E0DF91CF911F910F910895CF9326
:100A9000DF93EC01198218821B821A821D821C824C
:100AA00060E070E00E942005811105C0CE01DF9159
:100AB000CF910C940C051D821C8266E571E0888143
:100AC0009981DF91CF910C94760CEF92FF920F9366
:100AD0001F93CF93DF9300D0CDB7DEB78C010E9478
:100AE00047050E943F0497FD21C08A309105F1F02F
:100AF00089831A82F801E480F580FFEFEF1AFF0A7C
:100B0000B701C8010E942005882359F3F80120810C
:100B1000318184819581BE016F5F7F4F820F931F6A
:100B20000E94760CF801F582E482DBCFC8010F90B9
:100B30000F90DF91CF911F910F91FF90EF9008954B
:100B40001F920F920FB60F9211242F933F938F9302
:100B50009F93AF93BF9380910B0290910C02A09151
:100B60000D02B0910E023091060223E0230F2D37C3
:100B700020F40196A11DB11D05C026E8230F0296A1
:100B8000A11DB11D2093060280930B0290930C02CD
:100B9000A0930D02B0930E0280910702909108027B
:100BA000A0910902B0910A020196A11DB11D809386
:100BB000070290930802A0930902B0930A02BF9122
:100BC000AF919F918F913F912F910F900FBE0F90FA
:100BD0001F9018951F920F920FB60F9211242F930A
:100BE0003F934F935F936F937F938F939F93AF93B5
:100BF000BF93EF93FF938FE092E00E942602FF9154
:100C0000EF91BF91AF919F918F917F916F915F9184
:100C10004F913F912F910F900FBE0F901F901895FD
:100C20001F920F920FB60F9211242F938F939F93C1
:100C3000EF93FF93E0911F02F09120028081E091F9
:100C40002502F091260282FD12C090818091280237
:100C50008F5F8F7320912902821751F0E091280253
:100C6000F0E0E15FFD4F958F8093280201C0808105
:100C7000FF91EF919F918F912F910F900FBE0F9049
:100C80001F9018951F920F920FB60F9211242F9359
:100C90008F939F93EF93FF9380916F008B7F80934F
:100CA0006F00809181008F7B809381008091010291
:100CB0002091AB0120589091AA01893020F496959B
:100CC000922B8F5FFACF9093AA01809100028F5FE1
:100CD000803508F080E02091FF01821739F0E82F7D
:100CE000F0E0E455FE4F90838093000210920102E1
:100CF000809181008F7B809381001092AB01FF91E6
:100D0000EF919F918F912F910F900FBE0F901F9099
:100D100018951F920F920FB60F9211242F933F93A5
:100D20004F935F936F937F938F939F93AF93BF93F3
:100D3000EF93FF9380918600909187004091AB01E3
:100D400020918100442331F02F7B20938100109269
:100D5000AB0106C020642093810020E82093AB0102
:100D600030910102311125C041116CC02091020265
:100D700030910302280F391F30938B0020938A0093
:100D800024E026BB20916F00246020936F00209107
:100D9000040230910502820F931F36952795820F2A
:100DA000931F9093A9018093A80181E08093010291
:100DB00049C04091A8015091A9016091040270912D
:100DC0000502DB01A095B0952091AA01E091AB014D
:100DD000841B950BA817B90768F126952E2B460F93
:100DE000571F3F5F861B970B3930A0F32093AA0152
:100DF00080916F008B7F80936F00809100028F5FE6
:100E0000803508F080E09091FF01891749F0E82FC4
:100E1000F0E09091AA01E455FE4F90838093000288
:100E2000809181008F7B809381001092AB011092A2
:100E3000010208C02093AA015093A9014093A80180
:100E400030930102FF91EF91BF91AF919F918F91EC
:100E50007F916F915F914F913F912F910F900FBEB6
:100E60000F901F9018951F920F920FB60F9211249A
:100E70002F933F934F935F936F937F938F939F93A2
:100E8000EF93FF938091FE016091A701209188006C
:100E90003091890040910402509105029091A60181
:100EA0008A30F8F4240F351F893019F0762F7170CD
:100EB00001C071E066958F5F791791F39091800082
:100EC000772311F0906C02C09F7B90689093800014
:100ED00030938900209388007093A6016093A70146
:100EE0004AC09091FD01E091FC019E1319C08A3027
:100EF00051F48BE08093FE01240F351F309389005D
:100F0000209388003AC01092FE01809180008F7378
:100F10008093800080916F008D7F80936F002DC043
:100F2000EF5FE43408F0E0E0E093FC01F0E0EE591C
:100F3000FE4F90819093A7011092A601909180009E
:100F40009F7B9068909380008A3059F480910402CE
:100F500090910502280F391F309389002093880053
:100F600009C08091840090918500409690938900FB
:100F70008093880081E08093FE01FF91EF919F9123
:100F80008F917F916F915F914F913F912F910F9032
:100F90000FBE0F901F9018950F931F93CF93DF9361
:100FA000109212021092110288EE93E0A0E0B0E0DD
:100FB0008093130290931402A0931502B09316022B
:100FC00082E191E09093100280930F0285EC90E013
:100FD00090931C0280931B0284EC90E090931E027D
:100FE00080931D0280EC90E09093200280931F027A
:100FF00081EC90E0909322028093210282EC90E0B9
:10100000909324028093230286EC90E09093260232
:1010100080932502109228021092290210922A022F
:1010200010922B021092CD021092CC0286E391E036
:101030009093CB028093CA028CE08093D5028FEF0D
:101040008093D6028BE08093D70285E08093D8020C
:1010500084E08093D90283E08093DA0282E0809377
:10106000DB021092DC021092DD021092DE0210927E
:10107000DF02C8EDD2E00CED12E061E089910E9440
:1010800010010C171D07C9F761E08091D5020E947D
:1010900010018091D6028F3F19F061E00E9410018B
:1010A00061E08091D7020E9410011092CE0260E0B0
:1010B0008091D5020E94880060E08091D7020E9452
:1010C00088008091D6028F3F19F060E00E9488006E
:1010D0008FEF8093E0021092D4021092D30210920C
:1010E000C1021092C00288EE93E0A0E0B0E08093CD
:1010F000C2029093C302A093C402B093C50284E2DB
:1011000091E09093BF028093BE0288EB92E00E9430
:10111000470582EB92E00E9447058CEA92E0DF915E
:10112000CF911F910F910C944705CF93DF93CDB7CB
:10113000DEB768970FB6F894DEBF0FBECDBF7894C8
:1011400084B5826084BD84B5816084BD85B58260CC
:1011500085BD85B5816085BD80916E00816080937D
:101160006E001092810080918100826080938100E6
:1011700080918100816080938100809180008160F6
:10118000809380008091B10084608093B100809151
:10119000B00081608093B00080917A008460809379
:1011A0007A0080917A00826080937A0080917A0040
:1011B000816080937A0080917A00806880937A00C1
:1011C0001092C100E0911F02F091200282E0808322
:1011D000E0911B02F0911C021082E0911D02F0913F
:1011E0001E028FEC808310922702E0912302F0917F
:1011F000240286E08083E0912102F0912202808126
:1012000080618083E0912102F091220280818860D8
:101210008083E0912102F0912202808180688083A6
:10122000E0912102F091220280818F7D808320E075
:1012300043E060E18AEC92E00E94750310926F0037
:101240001092800081E88093810083E896E090937B
:101250000502809304028BE39CE390930302809346
:10126000020262E088E00E94100161E089E00E94D1
:10127000880061E089E00E94100110920102109242
:1012800000021092FF011092FE011092FD011092D7
:10129000FC0180E286BB80936F008BE3C82E8FE158
:1012A000D82E8E010F5F1F4F61E08AEC92E00E9402
:1012B0002B03C6010197F1F78FE092E00E94100224
:1012C00004970CF43FC08FE092E00E94EE011C8A6C
:1012D0001B8A1E8A1D8A188E1F8A4AE0B8010E9446
:1012E0000F0AF80101900020E9F731977F01E01A19
:1012F000F10AB701CE0143960E942005811105C075
:10130000CE0143960E940C0507C0F88EEF8AB80103
:101310008B899C890E94760CBE016D5E7F4F88EBA5
:1013200092E00E94D2048B899C890E94190B80E074
:101330000E94330386E491E00E94C00488EB92E0AF
:101340000E94D6018EEB92E00E940704892B71F176
:10135000C8010E946505B80182EB92E00E94D204A8
:1013600089819A810E94190B81E00E9433038DE4E8
:1013700091E00E94C00482EB92E00E94D601C80175
:101380000E946505B8018CEA92E00E94D20489812E
:101390009A810E94190B82E00E94330387E591E055
:1013A0000E94C0048CEA92E00E94D60160E570E0E1
:1013B00080E090E00E9471010E94B70275CF809199
:1013C000AC029091AD020E94190B8091B2029091F3
:1013D000B3020E94190B8091B8029091B9020E9449
:1013E000190B84E291E09093BF028093BE0280913A
:1013F0006F008B7F80936F0080916F008F7D809353
:101400006F008091FF01809300028091FE018111A5
:10141000FCCF80916F008D7F80936F000895BB2774
:101420004A3031F4992322F4BDE2909581959F4F83
:101430000C941B0ABB27FB015527AA27880F991F6D
:10144000AA1FA41710F0A41B83955051B9F7A05DF3
:10145000AA3308F0A95DA193009779F7B111B19370
:101460001192CB010C94340ADC01FC01672F7191BD
:101470007723E1F7329704C07C916D93708362917A
:10148000AE17BF07C8F308952F923F924F925F9215
:101490006F927F928F929F92AF92BF92CF92DF9284
:1014A000EF92FF920F931F93CF93DF93CDB7DEB7E9
:1014B000CA1BDB0B0FB6F894DEBF0FBECDBF09947D
:1014C0002A88398848885F846E847D848C849B84D4
:1014D000AA84B984C884DF80EE80FD800C811B81E2
:1014E000AA81B981CE0FD11D0FB6F894DEBF0FBE11
:1014F000CDBFED010895EE0FFF1F0590F491E02D93
:1015000009940F931F93CF93DF938230910510F4CA
:1015100082E090E0E091E302F091E40220E030E02C
:10152000A0E0B0E0309719F1408151810281138130
:1015300048175907C8F08417950769F4109731F0D8
:1015400012960C93129713961C9327C00093E302F4
:101550001093E40222C02115310519F042175307F8
:1015600018F49A01BD01EF01DF01F801DBCF21156D
:101570003105F9F0281B390B2430310580F48A81BC
:101580009B816115710521F0FB019383828304C067
:101590009093E4028093E302FE01329644C0FE0180
:1015A000E20FF31F819391932250310939832883ED
:1015B0003AC02091E1023091E202232B41F42091C4
:1015C0000201309103013093E2022093E102209165
:1015D0000001309101012115310541F42DB73EB7CD
:1015E0004091040150910501241B350BE091E1026B
:1015F000F091E202E217F307A0F42E1B3F0B28172D
:10160000390778F0AC014E5F5F4F2417350748F07B
:101610004E0F5F1F5093E2024093E102819391933A
:1016200002C0E0E0F0E0CF01DF91CF911F910F9178
:101630000895CF93DF93009709F481C0FC0132979E
:1016400013821282A091E302B091E402109781F418
:1016500020813181820F931F2091E1023091E202BB
:101660002817390751F5F093E202E093E10267C0D1
:10167000ED0120E030E0CE17DF0740F44A815B81C6
:101680009E0141155105F1F0EA01F5CFD383C283E4
:1016900040815181840F951FC817D90759F488815B
:1016A0009981840F951F0296918380838A819B8103
:1016B000938382832115310529F4F093E402E093AA
:1016C000E3023DC0E901FB83EA8349915991C40FCC
:1016D000D51FEC17FD0761F480819181840F951F60
:1016E0000296E90199838883828193819B838A830F
:1016F000E0E0F0E012968D919C911397009719F01D
:10170000FD01DC01F7CF8D919C9111979D012E5F1A
:101710003F4F820F931F2091E1023091E202281780
:10172000390769F4309729F41092E4021092E30229
:1017300002C013821282B093E202A093E102DF9111
:10174000CF910895A0E0B0E0E8EAFBE00C94480AED
:10175000EC01009721F4CB010E94810AB4C0FC0186
:10176000E60FF71F9C0122503109E217F30708F436
:10177000A8C0D9010D911C91119706171707B0F059
:101780000530110508F49BC0C80104978617970718
:1017900008F495C002501109061B170B0193119311
:1017A0006D937C93CF010E94190B89C05B01A01A35
:1017B000B10A4C01800E911EA091E302B091E402A7
:1017C000612C712CE12CF12C109709F446C08D91FD
:1017D0009C911197A815B905B1F56C0142E0C40EB2
:1017E000D11CCA14DB0478F14C018A189B086401EF
:1017F00042E0C40ED11C1296BC9012971396AC9185
:10180000B5E0CB16D10440F0B282A38391828082EE
:10181000D9016D937C9309C00E5F1F4F800F911FFC
:10182000F90191838083EB2DFA2FE114F10431F05B
:10183000D7011396FC93EE93129741C0F093E40204
:10184000E093E3023CC06816790608F43C017D0190
:1018500012960D90BC91A02DB7CF8091E10290918E
:10186000E20288169906E1F466167706C8F48091BC
:10187000000190910101009741F48DB79EB740910E
:10188000040150910501841B950BE817F907C8F472
:10189000F093E202E093E102F901718360830FC0EB
:1018A000CB010E94810A7C01009759F0A801BE017A
:1018B0000E946D0CCE010E94190BC70104C0CE011D
:1018C00002C080E090E0CDB7DEB7EEE00C94640A91
:1018D00081E090E0F8940C947D0CFB01DC0102C0E7
:1018E00001900D9241505040D8F70895FB01DC0162
:1018F00001900D920020E1F7089510E0CDE5D0E0D1
:1019000004C0FE010E947B0A2196CE35D107C9F79B
:04191000F894FFCF79
:101914000000E50280000040145400401050000014
:1019240000004802AC01DF0195021002EE01020240
:10193400000000008404AC01BD047F0407042904F2
:101944001604000000002003AC01BD04AB017503C4
:10195400D502C102F10255544461746100446973B3
:1019640074616E6365200054656D7065747572658D
:02197400200051
:00000001FF
