:100000000C9462000C948A000C948A000C948A0070
:100010000C948A000C948A000C948A000C948A0038
:100020000C948A000C948A000C948A000C948A0028
:100030000C948A000C948A000C948A000C948A0018
:100040000C94D3020C948A000C9443030C941D036B
:100050000C948A000C948A000C948A000C948A00F8
:100060000C948A000C948A000000000024002700F1
:100070002A0000000000250028002B0000000000DE
:1000800023002600290004040404040404040202DA
:100090000202020203030303030301020408102007
:1000A0004080010204081020010204081020000012
:1000B0000008000201000003040700000000000027
:1000C0000000750311241FBECFEFD8E0DEBFCDBF07
:1000D00011E0A0E0B1E0ECECF0E102C005900D927F
:1000E000A232B107D9F721E0A2E2B1E001C01D922E
:1000F000A53DB207E1F710E0C2E6D0E004C02197C9
:10010000FE010E941D06C136D107C9F70E94C70330
:100110000C9464080C940000833081F028F4813042
:1001200099F08230A1F008958730A9F08830B9F0B5
:100130008430D1F4809180008F7D03C08091800055
:100140008F7780938000089584B58F7702C084B53F
:100150008F7D84BD08958091B0008F7703C080911A
:10016000B0008F7D8093B0000895CF93DF93282F48
:1001700030E0F901E255FF4F8491F901E656FF4F57
:10018000D491F901EA57FF4FC491CC2391F081112A
:100190000E948C00EC2FF0E0EE0FFF1FE458FF4FA1
:1001A000A591B491EC91ED2381E090E021F480E001
:1001B00002C080E090E0DF91CF9108951F93CF932C
:1001C000DF93282F30E0F901E255FF4F8491F901C8
:1001D000E656FF4FD491F901EA57FF4FC491CC2363
:1001E000C1F0162F81110E948C00EC2FF0E0EE0F71
:1001F000FF1FEE58FF4FA591B4919FB7F8941111CE
:1002000004C08C91D095D82302C0EC91DE2BDC93F6
:100210009FBFDF91CF911F910895CF93DF9390E01F
:10022000FC01E656FF4F2491FC01EA57FF4F8491F1
:10023000882361F190E0880F991FFC01E859FF4F76
:10024000C591D491FC01EE58FF4FA591B491611175
:1002500009C09FB7F8948881209582238883EC9108
:100260002E230BC0623061F49FB7F8948881322F3F
:10027000309583238883EC912E2B2C939FBF06C04F
:100280008FB7F894E8812E2B28838FBFDF91CF9111
:1002900008953FB7F8948091270190912801A0918B
:1002A0002901B0912A0126B5A89B05C02F3F19F05E
:1002B0000196A11DB11D3FBFBA2FA92F982F8827E6
:1002C000820F911DA11DB11DBC01CD0142E0660F41
:1002D000771F881F991F4A95D1F70895CF92DF9213
:1002E000EF92FF920F931F93CF93DF936C017A01EC
:1002F0008B01C0E0D0E0CE15DF0581F0D8016D9113
:100300008D01D601ED91FC910190F081E02DC601A7
:100310000995892B11F02196EECF7E01C701DF915F
:10032000CF911F910F91FF90EF90DF90CF900895A4
:10033000089580E090E00895FC01538D448D252FB1
:1003400030E0842F90E0821B930B541710F0CF966F
:10035000089501970895FC01918D828D981761F0A1
:10036000828DDF01A80FB11D5D968C91928D9F5FEC
:100370009F73928F90E008958FEF9FEF0895FC0197
:10038000918D828D981731F0828DE80FF11D858D4A
:1003900090E008958FEF9FEF0895FC01918D228DDD
:1003A000892F90E0805C9F4F821B91098F73992762
:1003B00008958BE291E00E94CD0121E0892B09F4A0
:1003C00020E0822F0895FC01848DDF01A80FB11D6C
:1003D000A35ABF4F2C91848D90E001968F7399277B
:1003E000848FA689B7892C93A089B1898C91837059
:1003F00080648C93938D848D981306C00288F38952
:10040000E02D80818F7D80830895EF92FF920F937E
:100410001F93CF93DF93EC0181E0888F9B8D8C8DB0
:10042000981305C0E889F989808185FD26C0F62EDC
:100430000B8D10E00F5F1F4F0F731127E02E8C8D77
:10044000E8120CC00FB607FCFACFE889F989808161
:1004500085FFF5CFCE010E94E301F1CF8B8DFE0128
:10046000E80FF11DE35AFF4FF0829FB7F8940B8F0E
:10047000EA89FB89808180620AC09FB7F894EE897F
:10048000FF896083E889F989808183708064808333
:100490009FBF81E090E0DF91CF911F910F91FF907E
:1004A000EF900895CF93DF93EC01888D8823C9F0F6
:1004B000EA89FB89808185FD05C0A889B9898C916D
:1004C00086FD0FC00FB607FCF5CF808185FFF2CF08
:1004D000A889B9898C9185FFEDCFCE010E94E301F7
:1004E000E7CFDF91CF91089580E090E0892B29F04C
:1004F0000E94D90181110C9400000895009769F0C1
:10050000FC0101900020E9F73197AF01481B590B1E
:10051000BC018BE291E00C946E0180E090E00895C4
:100520008F929F92AF92BF920F931F93CF93DF93BF
:10053000CDB7DEB7A1970FB6F894DEBF0FBECDBF23
:1005400019A2423008F44AE08E010F5D1F4F842E3D
:10055000912CA12CB12CA50194010E94FB05E62F42
:10056000B901CA0101501109EA3014F4E05D01C07B
:10057000E95CD801EC93232B242B252B61F7C801D0
:100580000E947E02A1960FB6F894DEBF0FBECDBFCB
:10059000DF91CF911F910F91BF90AF909F908F905F
:1005A00008950E945F081F920F920FB60F921124B8
:1005B0002F933F938F939F93AF93BF93809123018A
:1005C00090912401A0912501B09126013091220142
:1005D00023E0230F2D3720F40196A11DB11D05C086
:1005E00026E8230F0296A11DB11D209322018093BE
:1005F000230190932401A0932501B09326018091BB
:10060000270190912801A0912901B0912A0101961A
:10061000A11DB11D8093270190932801A09329016A
:10062000B0932A01BF91AF919F918F913F912F91EC
:100630000F900FBE0F901F9018951F920F920FB63C
:100640000F9211242F933F934F935F936F937F9358
:100650008F939F93AF93BF93EF93FF938BE291E0C0
:100660000E94E301FF91EF91BF91AF919F918F9114
:100670007F916F915F914F913F912F910F900FBE9E
:100680000F901F9018951F920F920FB60F92112482
:100690002F938F939F93EF93FF93E0913B01F09102
:1006A0003C018081E0914101F091420182FD12C044
:1006B0009081809144018F5F8F7320914501821753
:1006C00051F0E0914401F0E0E55DFE4F958F80939D
:1006D000440101C08081FF91EF919F918F912F91F3
:1006E0000F900FBE0F901F901895CF93DF93EBE202
:1006F000F1E01382128288EE93E0A0E0B0E0848300
:100700009583A683B78384E091E09183808385EC11
:1007100090E09587848784EC90E09787868780ECCB
:1007200090E0918B808B81EC90E0938B828B82ECBC
:1007300090E0958B848B86EC90E0978B868B118E66
:10074000128E138E148ECAECD1E01A8287E0888351
:1007500086E0898361E087E00E940D0160E0898185
:100760000E940D0180E29EE4A0E0B0E08F839887B4
:10077000A987BA8761E08EE00E940D018EE090E0CB
:100780009093C9018093C801DF91CF910895789427
:1007900084B5826084BD84B5816084BD85B5826086
:1007A00085BD85B5816085BD80916E008160809337
:1007B0006E001092810080918100826080938100A0
:1007C00080918100816080938100809180008160B0
:1007D000809380008091B10084608093B10080910B
:1007E000B00081608093B00080917A008460809333
:1007F0007A0080917A00826080937A0080917A00FA
:10080000816080937A0080917A00806880937A007A
:100810001092C100E0913B01F0913C0182E08083A5
:10082000E0913701F09138011082E0913901F091A7
:100830003A018FEC808310924301E0913F01F091E7
:10084000400186E08083E0913D01F0913E0180818E
:1008500080618083E0913D01F0913E01808188605C
:100860008083E0913D01F0913E018081806880832A
:10087000E0913D01F0913E0180818F7D808380E495
:100880009CE9A0E0B0E08093D1019093D201A093C5
:10089000D301B093D40193E0292E312C03E210E070
:1008A000C8E3D0E08091CC01882329F061E08091F9
:1008B000CA010E940D0160E08091CA010E94DE0021
:1008C000C1010197F1F761E08091CA010E94DE0049
:1008D000C8010197F1F760E08091CA010E94DE0033
:1008E0008091CC01882329F060E08091CA010E94A8
:1008F0000D010E9449016093CD017093CE01809358
:10090000CF019093D0018091CB010E94B500892B3B
:10091000E9F40E944901C090CD01D090CE01E09051
:10092000CF01F090D001DC01CB018C199D09AE09FB
:10093000BF09C090D101D090D201E090D301F090D6
:10094000D401C816D906EA06FB06E8F60E9449015A
:100950006093CD017093CE018093CF019093D0012D
:100960008091CB010E94B500892BE9F00E944901DA
:10097000C090CD01D090CE01E090CF01F090D00199
:10098000DC01CB018C199D09AE09BF09C090D101D2
:10099000D090D201E090D301F090D401C816D906CE
:1009A000EA06FB06E8F60E9449012091CD0130914C
:1009B000CE01CB01821B930BBE010E94E70580E0B4
:1009C00090E04AE00E9490028EE191E00E947E0257
:1009D0008091C8018E3008F08E50877080648093BB
:1009E0007C0080917A00806480937A0080917A0004
:1009F00086FDFCCF609178008091790070E0782BC3
:100A0000072E000C880B990B0E94380720E030E07D
:100A100040EA50E40E94ED0720E030EC4FE754E458
:100A20000E9495062AE037ED43E25CE30E949506BA
:100A30006B017C014B015C019B01AC010E945A08D7
:100A4000882319F082E191E01AC026013701E89469
:100A500077F82FEF3FEF4FE75FE7C301B2010E9446
:100A60005A0881110FC02FEF3FEF4FE75FE7C30137
:100A7000B2010E94900618162CF486E191E00E94C3
:100A80007E0278C02FEF3FEF4FE75FE4C701B6016A
:100A90000E94E80718161CF48AE191E0F0CF2FEFCE
:100AA0003FEF4FE75FECC701B6010E94900687FD5C
:100AB000F3CF20E030E0A901C701B6010E94900603
:100AC00087FF0BC06DE28BE291E00E9405024601B8
:100AD0005701B7FAB094B7F8B0942AE037ED43EA7B
:100AE0005BE3C501B4010E9424064B015C010E9436
:100AF00007076B017C010E9436079B01AC01C50111
:100B0000B4010E9423064B015C014AE0C701B60113
:100B10000E9490026EE28BE291E00E94050220E0CA
:100B200030E040E251E4C501B4010E94ED074B0101
:100B30005C010E9407076B01E12CF12C4AE0C70120
:100B4000B6010E949002C701B6010E9436079B01C0
:100B5000AC01C501B4010E94230620E030E040E270
:100B600051E40E94ED070E94070780E090E04AE010
:100B70000E9490028EE191E00E947E020E94490153
:100B80004B015C018AEFC82ED12CE12CF12C0E9484
:100B90004901DC01CB0188199909AA09BB09883EE2
:100BA0009340A105B10598F321E0C21AD108E108EC
:100BB000F10888EE880E83E0981EA11CB11CC114B8
:100BC000D104E104F10419F70E9474026BCEAA1B50
:100BD000BB1B51E107C0AA1FBB1FA617B70710F028
:100BE000A61BB70B881F991F5A95A9F7809590955A
:100BF000BC01CD010895A1E21A2EAA1BBB1BFD0169
:100C00000DC0AA1FBB1FEE1FFF1FA217B307E407EB
:100C1000F50720F0A21BB30BE40BF50B661F771F43
:100C2000881F991F1A9469F7609570958095909523
:100C30009B01AC01BD01CF010895EE0FFF1F059090
:100C4000F491E02D09945058BB27AA270E943B0637
:100C50000C94AE070E94A00738F00E94A70720F06E
:100C600039F49F3F19F426F40C949D070EF4E09597
:100C7000E7FB0C949707E92F0E94BF0758F3BA17B8
:100C8000620773078407950720F079F4A6F50C94A2
:100C9000E1070EF4E0950B2EBA2FA02D0B01B90140
:100CA00090010C01CA01A0011124FF27591B99F0E2
:100CB000593F50F4503E68F11A16F040A22F232FEE
:100CC000342F4427585FF3CF469537952795A7953E
:100CD000F0405395C9F77EF41F16BA0B620B730BE5
:100CE000840BBAF09150A1F0FF0FBB1F661F771F56
:100CF000881FC2F70EC0BA0F621F731F841F48F40B
:100D0000879577956795B795F7959E3F08F0B0CF93
:100D10009395880F08F09927EE0F9795879508957A
:100D20000E94730708F481E008950E94A9060C94BC
:100D3000AE070E94A70758F00E94A00740F029F4D0
:100D40005F3F29F00C94970751110C94E2070C9423
:100D50009D070E94BF0768F39923B1F3552391F3D0
:100D6000951B550BBB27AA2762177307840738F01A
:100D70009F5F5F4F220F331F441FAA1FA9F335D077
:100D80000E2E3AF0E0E832D091505040E695001C2B
:100D9000CAF72BD0FE2F29D0660F771F881FBB1FE5
:100DA000261737074807AB07B0E809F0BB0B802DC3
:100DB000BF01FF2793585F4F3AF09E3F510578F0EF
:100DC0000C9497070C94E2075F3FE4F3983ED4F34A
:100DD000869577956795B795F7959F5FC9F7880FC3
:100DE000911D9695879597F90895E1E0660F771F15
:100DF000881FBB1F621773078407BA0720F0621BA6
:100E0000730B840BBA0BEE1F88F7E09508950E94D0
:100E1000C70788F09F5798F0B92F9927B751B0F0BE
:100E2000E1F0660F771F881F991F1AF0BA95C9F76E
:100E300014C0B13091F00E94E107B1E008950C9424
:100E4000E107672F782F8827B85F39F0B93FCCF3D7
:100E5000869577956795B395D9F73EF490958095EB
:100E6000709561957F4F8F4F9F4F0895E89409C00B
:100E700097FB3EF490958095709561957F4F8F4FCD
:100E80009F4F9923A9F0F92F96E9BB279395F695E3
:100E9000879577956795B795F111F8CFFAF4BB0F61
:100EA00011F460FF1BC06F5F7F4F8F4F9F4F16C0C5
:100EB000882311F096E911C0772321F09EE8872F4F
:100EC000762F05C0662371F096E8862F70E060E00B
:100ED0002AF09A95660F771F881FDAF7880F969584
:100EE000879597F90895990F0008550FAA0BE0E828
:100EF000FEEF16161706E807F907C0F012161306DC
:100F0000E407F50798F0621B730B840B950B39F41B
:100F10000A2661F0232B242B252B21F408950A2681
:100F200009F4A140A6958FEF811D811D089597F9C1
:100F30009F6780E870E060E008959FEF80EC08957F
:100F400000240A94161617061806090608950024A8
:100F50000A9412161306140605060895092E039422
:100F6000000C11F4882352F0BB0F40F4BF2B11F496
:100F700060FF04C06F5F7F4F8F4F9F4F089557FDF5
:100F80009058440F551F59F05F3F71F04795880FF7
:100F900097FB991F61F09F3F79F08795089512168E
:100FA00013061406551FF2CF4695F1DF08C016163A
:100FB00017061806991FF1CF8695710561050894EB
:100FC0000895E894BB2766277727CB0197F9089502
:100FD0000E94730708F48FEF08950E9400080C9494
:100FE000AE070E94A00738F00E94A70720F09523C3
:100FF00011F00C9497070C949D0711240C94E207B0
:101000000E94BF0770F3959FC1F3950F50E0551FE5
:10101000629FF001729FBB27F00DB11D639FAA274D
:10102000F00DB11DAA1F649F6627B00DA11D661F9C
:10103000829F2227B00DA11D621F739FB00DA11DBD
:10104000621F839FA00D611D221F749F3327A00D77
:10105000611D231F849F600D211D822F762F6A2F13
:1010600011249F5750409AF0F1F088234AF0EE0F78
:10107000FF1FBB1F661F771F881F91505040A9F7A5
:101080009E3F510580F00C9497070C94E2075F3F58
:10109000E4F3983ED4F3869577956795B795F795E1
:1010A000E7959F5FC1F7FE2B880F911D9695879559
:1010B00097F908950E947307880B990B089581E0B2
:0C10C00090E0F8940C946408F894FFCFC2
:1010CC000000000005026E019C015202CD01AB0133
:1010DC00BF016E616E00696E66006F7666000D0A68
:0210EC00000002
:00000001FF
