:100000000C9458000C9480000C9480000C94800098
:100010000C9480000C9480000C9480000C94800060
:100020000C9480000C9480000C9480000C94800050
:100030000C9480000C9480000C9480000C94800040
:100040000C9404040C9480000C9474040C944E04DE
:100050000C9480000C9480000C9480000C94800020
:100060000C94A6040C9480000000000025002800D9
:100070002B00040404040404040402020202020229
:10008000030303030303010204081020408001025C
:1000900004081020010204081020000000080002DB
:1000A0000100000304070000000000000000D40568
:1000B00011241FBECFEFD8E0DEBFCDBF11E0A0E01E
:1000C000B1E0ECEBF3E102C005900D92A033B10773
:1000D000D9F722E0A0E3B1E001C01D92AE39B2072A
:1000E000E1F710E0C8E5D0E004C02197FE010E94CE
:1000F0000708C735D107C9F70E940D060C94DC0923
:100100000C940000282F3091F401313208F04AC0DD
:100110008091D0018111FCCF9091F30142E0409396
:10012000D0012093CF012FEF2093CE011092CD016B
:100130003093CC01E3EDF1E0ACEAB1E020E032171E
:1001400021F041914D932F5FFACF1092AB01209196
:10015000AB01990F922B9093AB019091AA01913032
:1001600061F41092AA019091AB019093BB00909121
:10017000BC0093FDF8CF95EC01C095EE9093BC00C8
:100180009091D0019230E1F39091CE019F3F79F0B0
:100190008091CE01803241F08091CE01803331F0E8
:1001A00084E005C081E003C082E001C083E01092DA
:1001B000D2011092F4011092D101089590E0FC0157
:1001C000E656FF4F2491FC01EA57FF4F3491FC01A2
:1001D000EE58FF4FE491EE23B1F1222339F12330A1
:1001E00091F038F42130A9F0223001F584B58F7DEB
:1001F00012C0273091F02830A1F02430B9F480915A
:1002000080008F7D03C0809180008F778093800075
:100210000DC084B58F7784BD09C08091B0008F7701
:1002200003C08091B0008F7D8093B000F0E0EE0FAE
:10023000FF1FE859FF4FA591B4918FB7F894EC9147
:10024000E32BEC938FBF08953FB7F8948091A601FC
:100250009091A701A091A801B091A90126B5A89BF2
:1002600005C02F3F19F00196A11DB11D3FBFBA2F48
:10027000A92F982F8827820F911DA11DB11DBC01A8
:10028000CD0142E0660F771F881F991F4A95D1F76D
:1002900008958F929F92AF92BF92CF92DF92EF928A
:1002A000FF920E9424014B015C0184E6C82ED12CF0
:1002B000E12CF12C0E942401DC01CB018819990961
:1002C000AA09BB09883E9340A105B10598F321E036
:1002D000C21AD108E108F10888EE880E83E0981E62
:1002E000A11CB11CC114D104E104F10419F7FF9061
:1002F000EF90DF90CF90BF90AF909F908F90089538
:1003000008950895CF92DF92EF92FF920F931F937B
:10031000CF93DF936C017A018B01C0E0D0E0CE1562
:10032000DF0581F0D8016D918D01D601ED91FC9131
:100330000190F081E02DC6010995892B11F02196DD
:10034000EECF7E01C701DF91CF911F910F91FF90FA
:10035000EF90DF90CF900895FC01538D448D252FB1
:1003600030E0842F90E0821B930B541710F0CF964F
:10037000089501970895FC01918D828D981761F081
:10038000828DDF01A80FB11D5D968C91928D9F5FCC
:100390009F73928F90E008958FEF9FEF0895FC0177
:1003A000918D828D981731F0828DE80FF11D858D2A
:1003B00090E008958FEF9FEF0895FC01918D228DBD
:1003C000892F90E0805C9F4F821B91098F73992742
:1003D000089585EF91E00E94DD0121E0892B09F469
:1003E00020E0822F0895FC01848DDF01A80FB11D4C
:1003F000A35ABF4F2C91848D90E001968F7399275B
:10040000848FA689B7892C93A089B1898C91837038
:1004100080648C93938D848D981306C00288F38931
:10042000E02D80818F7D80830895EF92FF920F935E
:100430001F93CF93DF93EC0181E0888F9B8D8C8D90
:10044000981305C0E889F989808185FD26C0F62EBC
:100450000B8D10E00F5F1F4F0F731127E02E8C8D57
:10046000E8120CC00FB607FCFACFE889F989808141
:1004700085FFF5CFCE010E94F301F1CF8B8DFE01F8
:10048000E80FF11DE35AFF4FF0829FB7F8940B8FEE
:10049000EA89FB89808180620AC09FB7F894EE895F
:1004A000FF896083E889F989808183708064808313
:1004B0009FBF81E090E0DF91CF911F910F91FF905E
:1004C000EF900895CF93DF93EC01888D8823C9F0D6
:1004D000EA89FB89808185FD05C0A889B9898C914D
:1004E00086FD0FC00FB607FCF5CF808185FFF2CFE8
:1004F000A889B9898C9185FFEDCFCE010E94F301C7
:10050000E7CFDF91CF91089580E090E0892B29F02B
:100510000E94E90181110C940000089585ED8093FB
:10052000BC008091BC0084FDFCCF1092D0010895E6
:1005300040917001262F30E0240F311D213231050A
:10054000DCF42091D0012430C9F4FC0180E090E07B
:10055000861758F4309170012191DC01A05BBE4FE9
:10056000A30FB11D2C930196F3CF80917001680FFA
:100570006093700180E0089581E0089582E008951D
:100580000895E091980180919701E81730F4F0E028
:10059000E05DFE4F808190E008958FEF9FEF08951A
:1005A0009091980180919701981750F4E92FF0E00D
:1005B000E05DFE4F208130E09F5F9093980102C084
:1005C0002FEF3FEFC90108958091970190E02091AE
:1005D0009801821B91090895CF92DF92EF92FF92CA
:1005E0000F931F93CF93DF937C01CB018A0120915E
:1005F000D101222389F0EB016B01C40ED51ECC156D
:10060000DD0569F06991D701ED91FC910190F081D0
:10061000E02DC7010995F3CF642F0E949802C8010D
:10062000DF91CF911F910F91FF90EF90DF90CF90CE
:100630000895CF93DF931F92CDB7DEB769832091E2
:10064000D1012223D1F02091F401203240F021E0A9
:1006500030E0FC013383228380E090E015C080917C
:10066000D201E82FF0E0ED52FE4F998190838F5F29
:100670008093D2018093F40105C061E0CE01019620
:100680000E94980281E090E00F90DF91CF91089551
:10069000089580E090E00895009769F0FC010190D2
:1006A0000020E9F73197AF01481B590BBC0185EFDA
:1006B00091E00C94820180E090E008958F929F92E7
:1006C000AF92BF920F931F93CF93DF93CDB7DEB757
:1006D000A1970FB6F894DEBF0FBECDBF19A242306E
:1006E00008F44AE08E010F5D1F4F842E912CA12C3F
:1006F000B12CA50194010E94E507E62FB901CA01BA
:1007000001501109EA3014F4E05D01C0E95CD80140
:10071000EC93232B242B252B61F7C8010E944C035B
:10072000A1960FB6F894DEBF0FBECDBFDF91CF917B
:100730001F910F91BF90AF909F908F900895CF938E
:1007400091E09093D1019EE69093F3011092D20133
:100750001092F401682F82E992E00E94190381E06F
:100760000E9482008091D0018111FCCF81E08093B2
:10077000D0018093CF019FEF9093CE011092CD01D5
:100780001092CC018093AB018091AB018C6D809372
:10079000AB018091AA01813061F41092AA0180918D
:1007A000AB018093BB008091BC0083FDF8CF85EC4A
:1007B00001C085EE8093BC008091D0018130E1F3CF
:1007C0008091CD01811103C09091CD0101C091E0D4
:1007D000ACEAB1E0E0E3F1E080E0891721F02D918F
:1007E00021938F5FFACF109298018093970190E048
:1007F00002972CF482E992E00E94D002C82F8C2F3D
:10080000CF9108950E94D7091F920F920FB60F92B1
:1008100011242F933F938F939F93AF93BF93809116
:10082000A2019091A301A091A401B091A5013091E2
:10083000A10123E0230F2D3720F40196A11DB11D46
:1008400005C026E8230F0296A11DB11D2093A1012A
:100850008093A2019093A301A093A401B093A5015A
:100860008091A6019091A701A091A801B091A90142
:100870000196A11DB11D8093A6019093A701A0939D
:10088000A801B093A901BF91AF919F918F913F9122
:100890002F910F900FBE0F901F9018951F920F92DF
:1008A0000FB60F9211242F933F934F935F936F9343
:1008B0007F938F939F93AF93BF93EF93FF9385EFB6
:1008C00091E00E94F301FF91EF91BF91AF919F9151
:1008D0008F917F916F915F914F913F912F910F90E9
:1008E0000FBE0F901F9018951F920F920FB60F9288
:1008F00011242F938F939F93EF93FF93E091050221
:10090000F09106028081E0910B02F0910C0282FDD1
:1009100012C0908180910E028F5F8F7320910F0221
:10092000821751F0E0910E02F0E0EB50FE4F958FF0
:1009300080930E0201C08081FF91EF919F918F9172
:100940002F910F900FBE0F901F9018951F920F922E
:100950000FB60F9211242F933F934F935F936F9392
:100960007F938F939F93AF93BF93EF93FF93809168
:10097000B900887F803609F49CC068F5883209F494
:100980005BC090F4803109F454C038F4882309F432
:10099000F6C0883009F44DC0F6C0883109F44CC067
:1009A000803209F45DC0EFC0803409F468C048F4B7
:1009B000803309F455C0883309F0E5C08093CE0137
:1009C000D8C0803509F44FC0883509F45DC088343B
:1009D00009F0D9C0D6C0883909F4C7C0A8F488374F
:1009E00009F467C038F4883609F463C0803709F425
:1009F00060C0C9C0883809F4B8C0803909F45FC044
:100A0000803809F0C0C05BC0803B09F486C038F470
:100A1000803A09F466C0883A09F47FC0B4C0803CCB
:100A200009F4A7C0883C09F4A4C0883B09F48AC033
:100A3000AAC08091AB0110C09091CD018091CC01F2
:100A4000981770F5E091CD0181E08E0F8093CD0174
:100A5000F0E0E455FE4F80818093BB0085EC86C0BA
:100A60008093CE018EC0E091CD0181E08E0F809306
:100A7000CD018091BB00F0E0E455FE4F8083909162
:100A8000CD018091CC016EC0E091CD0181E08E0F4F
:100A90008093CD018091BB00F0E0E455FE4F808350
:100AA0008091CF0181116DC081E08093AA0184EA19
:100AB00061C083E08093D00110929201CFCF8091EA
:100AC0009201803208F051C0E091920181E08E0FD6
:100AD000809392018091BB00F0E0EE58FE4F80833E
:100AE000BDCF85EC8093BC001092D0018091920123
:100AF000803230F4E0919201F0E0EE58FE4F108227
:100B00006091920170E0E0919301F091940182E78D
:100B100091E009951092920136C084E08093D00153
:100B20001092710110927001E0919501F09196017F
:100B3000099580917001811105C081E08093700159
:100B400010925001E091710181E08E0F809371014C
:100B5000F0E0E05BFE4F80818093BB0090917101DB
:100B600080917001981708F479CF85E88093BC00D4
:100B70000AC085EC8093BC001092D00104C0109292
:100B8000CE010E948E02FF91EF91BF91AF919F9194
:100B90008F917F916F915F914F913F912F910F9026
:100BA0000FBE0F901F901895E5EFF1E013821282AF
:100BB00088EE93E0A0E0B0E084839583A683B783BA
:100BC00024E031E03183208325EC30E03587248731
:100BD00024EC30E03787268720EC30E0318B208B07
:100BE00021EC30E0338B228B22EC30E0358B248BF0
:100BF00026EC30E0378B268B118E128E138E148EDE
:100C0000E2E9F2E01382128284839583A683B7839C
:100C100086E191E0918380830895789484B5826021
:100C200084BD84B5816084BD85B5826085BD85B590
:100C3000816085BD80916E00816080936E0010920E
:100C40008100809181008260809381008091810089
:100C5000816080938100809180008160809380001A
:100C60008091B10084608093B1008091B000816078
:100C70008093B00080917A00846080937A008091A4
:100C80007A00826080937A0080917A0081608093FC
:100C90007A0080917A00806880937A001092C10077
:100CA00010929801109297011092D2011092F401C3
:100CB0001092D001C1E0C093CF011092AA0182E14D
:100CC0000E94DE0083E10E94DE008091B9008E7FE9
:100CD0008093B9008091B9008D7F8093B90088E43A
:100CE0008093B80085E48093BC0080E891E0909305
:100CF00096018093950181E891E09093940180930F
:100D00009301E0910502F091060282E08083E09178
:100D10000102F09102021082E0910302F0910402BC
:100D20008FEC808310920D02E0910902F0910A028B
:100D300086E08083E0910702F09108028081806163
:100D40008083E0910702F0910802808188608083AF
:100D5000E0910702F0910802808180688083E09131
:100D60000702F091080280818F7D80830E944901F3
:100D7000C093D1018EE68093F3011092D2011092BC
:100D8000F40160E082E992E00E94190361E082E9E7
:100D900092E00E94190381E00E9482008AE090E0C4
:100DA0000E949F0380939901682F70E080E090E09B
:100DB0004AE00E945E038BE090E00E949F038093D4
:100DC0009A01682F70E080E090E04AE00E945E03A4
:100DD0008CE090E00E949F0380939B01682F70E05D
:100DE00080E090E04AE00E945E038DE090E00E9487
:100DF0009F0380939C01682F70E080E090E04AE0C0
:100E00000E945E038090990190909A01A0909B01AE
:100E1000B0909C0188E290E00E949F0380939D0126
:100E200089E290E00E949F0380939E018AE290E015
:100E30000E949F0380939F018BE290E00E949F039A
:100E40008093A001C0909D01D0909E01E0909F01F1
:100E5000F090A001A5019401C501B4010E946509AB
:100E60004B015C01A7019601C701B6010E9465090B
:100E70009B01AC01C501B4010E940E086B017C010D
:100E80004B015C019B01AC010E94D209882319F03F
:100E900084E291E01AC026013701E89477F82FEF39
:100EA0003FEF4FE75FE7C301B2010E94D209811112
:100EB0000FC02FEF3FEF4FE75FE7C301B2010E9482
:100EC0007A0818162CF488E291E00E944C0378C04E
:100ED0002FEF3FEF4FE75FE4C701B6010E946009C3
:100EE00018161CF48CE291E0F0CF2FEF3FEF4FE7A4
:100EF0005FECC701B6010E947A0887FDF3CF20E0BE
:100F000030E0A901C701B6010E947A0887FF0BC033
:100F10006DE285EF91E00E94150246015701B7FA94
:100F2000B094B7F8B0942AE037ED43EA5BE3C5012B
:100F3000B4010E940E084B015C010E947F086B0106
:100F40007C010E94AE089B01AC01C501B4010E9466
:100F50000D084B015C014AE0C701B6010E945E0327
:100F60006EE285EF91E00E94150220E030E040E261
:100F700051E4C501B4010E9465094B015C010E9466
:100F80007F086B01E12CF12C4AE0C701B6010E94F9
:100F90005E03C701B6010E94AE089B01AC01C5010A
:100FA000B4010E940D0820E030E040E251E40E94CC
:100FB00065090E947F0880E090E04AE00E945E039D
:100FC0000E9449010E948402E9CEA1E21A2EAA1BC6
:100FD000BB1BFD010DC0AA1FBB1FEE1FFF1FA217E9
:100FE000B307E407F50720F0A21BB30BE40BF50BE6
:100FF000661F771F881F991F1A9469F7609570956F
:10100000809590959B01AC01BD01CF010895EE0F35
:10101000FF1F0590F491E02D09945058BB27AA2793
:101020000E9425080C9426090E94180938F00E9495
:101030001F0920F039F49F3F19F426F40C94150988
:101040000EF4E095E7FB0C940F09E92F0E94370995
:1010500058F3BA17620773078407950720F079F4ED
:10106000A6F50C9459090EF4E0950B2EBA2FA02D7D
:101070000B01B90190010C01CA01A0011124FF2745
:10108000591B99F0593F50F4503E68F11A16F04040
:10109000A22F232F342F4427585FF3CF469537953F
:1010A0002795A795F0405395C9F77EF41F16BA0B04
:1010B000620B730B840BBAF09150A1F0FF0FBB1FB2
:1010C000661F771F881FC2F70EC0BA0F621F731FFB
:1010D000841F48F4879577956795B795F7959E3F58
:1010E00008F0B0CF9395880F08F09927EE0F9795E9
:1010F000879508950E94EB0808F481E008950E9406
:101100003F0988F09F5798F0B92F9927B751B0F051
:10111000E1F0660F771F881F991F1AF0BA95C9F77B
:1011200014C0B13091F00E945909B1E008950C94B7
:101130005909672F782F8827B85F39F0B93FCCF36A
:10114000869577956795B395D9F73EF490958095F8
:10115000709561957F4F8F4F9F4F0895E89409C018
:1011600097FB3EF490958095709561957F4F8F4FDA
:101170009F4F9923A9F0F92F96E9BB279395F695F0
:10118000879577956795B795F111F8CFFAF4BB0F6E
:1011900011F460FF1BC06F5F7F4F8F4F9F4F16C0D2
:1011A000882311F096E911C0772321F09EE8872F5C
:1011B000762F05C0662371F096E8862F70E060E018
:1011C0002AF09A95660F771F881FDAF7880F969591
:1011D000879597F90895990F0008550FAA0BE0E835
:1011E000FEEF16161706E807F907C0F012161306E9
:1011F000E407F50798F0621B730B840B950B39F429
:101200000A2661F0232B242B252B21F408950A268E
:1012100009F4A140A6958FEF811D811D089597F9CE
:101220009F6780E870E060E008959FEF80EC08958C
:1012300000240A94161617061806090608950024B5
:101240000A9412161306140605060895092E03942F
:10125000000C11F4882352F0BB0F40F4BF2B11F4A3
:1012600060FF04C06F5F7F4F8F4F9F4F089557FD02
:101270009058440F551F59F05F3F71F04795880F04
:1012800097FB991F61F09F3F79F08795089512169B
:1012900013061406551FF2CF4695F1DF08C0161647
:1012A00017061806991FF1CF8695710561050894F8
:1012B0000895E894BB2766277727CB0197F908950F
:1012C0000E94EB0808F48FEF08950E9478090C94AF
:1012D00026090E94180938F00E941F0920F0952362
:1012E00011F00C940F090C94150911240C945A094F
:1012F0000E94370970F3959FC1F3950F50E0551F79
:10130000629FF001729FBB27F00DB11D639FAA275A
:10131000F00DB11DAA1F649F6627B00DA11D661FA9
:10132000829F2227B00DA11D621F739FB00DA11DCA
:10133000621F839FA00D611D221F749F3327A00D84
:10134000611D231F849F600D211D822F762F6A2F20
:1013500011249F5750409AF0F1F088234AF0EE0F85
:10136000FF1FBB1F661F771F881F91505040A9F7B2
:101370009E3F510580F00C940F090C945A095F3F71
:10138000E4F3983ED4F3869577956795B795F795EE
:10139000E7959F5FC1F7FE2B880F911D9695879566
:1013A00097F908950E94EB08880B990B089581E046
:0C13B00090E0F8940C94DC09F894FFCF56
:1013BC000000000015028201AC016202DD01BB01DC
:1013CC00CF01000000001903EC024903C002E40243
:1013DC00D002C1026E616E00696E66006F766600A7
:00000001FF
